:100000000C9448030C9479030C9479030C947903B1
:100010000C9479030C9479030C9479030C94790370
:100020000C9479030C9479030C9479030C94790360
:100030000C948C170C9479030C9479030C94790329
:100040000C9479030C94760B0C9479030C9479033B
:100050000C9479030C9479030C9479030C94A20A00
:100060000C9479030C946C0A0C94420A0C94790356
:100070000C9479030C9479030C9479030C94790310
:100080000C94480B0C9479030C9479030C94790329
:100090000C9479030C9479030C9479030C947903F0
:1000A0000C9479030C9479030C941A0B0C94790337
:1000B0000C9479030C9479030C9479030C94EC0A56
:1000C0000C9479030C9479030C9479030C947903C0
:1000D0000C9479030C9479030C9479030C947903B0
:1000E0000C9479030C9415050C94BE020C945001E9
:1000F0000C941E050C9409050C94B8020C944A0843
:100100000C9443050C9447040C942C050C943A056C
:100110000C9411050C94DE030C9428050C94A60293
:100120000C9403050C943E050C94B5060C948408BD
:100130000C945B080C9448050C940D050C94190361
:100140000C9422050C94D5070C9439080C940F04D8
:100150000C9444050C9401040C948F170C943005F6
:100160000C94D6080C9494040C9436050C94ED036E
:100170000C94B1030C947B020C9405080C941805A4
:1001800000002100240027002A002D003000330049
:1001900001010000040107010A01000022002500FE
:1001A00028002B002E003100340002010000050160
:1001B00008010B01000020002300260029002C006C
:1001C0002F003200000100000301060109010505AE
:1001D0000505070508080808020202020A0A0808BD
:1001E00004040404010101010101010103030303EB
:1001F00003030303040707070C0C0C0C0C0C0C0C7A
:100200000202020206060606060606060B0B0B0B8A
:100210000B0B0B0B010210202008081020401020AF
:1002200040800201020108040201010204081020BA
:1002300040808040201008040201800402018040B8
:100240002010080402010804020101020408102021
:100250004080010204081020408000000A0B0209BF
:100260000C0D0E0807030401000000000000000050
:10027000000000000000000000000000000000007E
:10028000000000000000121110000000000000003B
:10029000000000000000000000000000000000005E
:1002A000CF93DF9300D000D000D01F92CDB7DEB740
:1002B000E091F602F091F7021081D12CC12C1123AC
:1002C00029F00580F681E02DC080D1800E949E0C2F
:1002D0000E94940C7C018091E9029091EA02E81658
:1002E000F90608F08EC00E94C30DF092EA02E09277
:1002F000E9020E94760F00910C0310910D031A86FB
:10030000198680E06801F1E1CF0ED11C0FB6F89498
:100310000F92D8015A96FC905A97FF2009F432C1E7
:100320005C964C915C97442301F150E016968D91B8
:100330009C911797840F951F17969C938E931697F1
:1003400014962D913C9115978217930738F08D9153
:100350009C91119717969C938E931697F80166813E
:100360007781CE0101960E94D91BFA94D8015A9642
:10037000FC925A9718968C91882339F0C8010896F8
:100380000E94EF0B81110E94B20E0F900FBEF980F8
:10039000F7FCB1CF0C811D81D8011A968D919C91EB
:1003A000892B21F0C80102960E94F10C0E94940C46
:1003B0006C018091E9029091EA02C816D90610F406
:1003C0000E94C30DD092EA02C092E902EFEFEF0D56
:1003D000E93008F090CF0E2E000CFF0BD80152969A
:1003E0009C9152978827E850FE4F8F4F0C94D11B59
:1003F0007B027B02BE02A602B8027B027B02BE0227
:10040000A602F092EA02E092E902112351F0EC1404
:10041000FD0470F00E94760FB701C6010E94990D8D
:100420006ACFE091F402F091F502808161E08111E0
:1004300060E000910C0310910D030FB6F8940F9239
:10044000D8015D968C915D978F3F11F45D961C925B
:10045000F801868D8F3F09F4168E0F900FBED801DC
:100460005A968C915A9781113CC05296ED91FC910D
:10047000A091D802B091D9021F96FC93EE931E97DB
:10048000A091D802B091D9028481958151969C9314
:100490008E9350978091D8029091D902A481B58112
:1004A0000C9613969C938E9312978091D8029091FC
:1004B000D9020C9695838483E091D802F091D902F9
:1004C000C8014196958B848BF80181898F5F818B60
:1004D000C6018E199F09662311F08FEF9FEF0E94CE
:1004E000E10DC8010E94AF0C0E94760F811103CF6D
:1004F0000E94B20E00CF9160F801928BEA80FB80DF
:10050000648575856E0D7F1D9701A601C8010E9447
:100510004B0D882309F4EFCED80152968C91529757
:1005200082FF10C01C966D917C916E0D7F1DA601FF
:10053000C8010E94750DD8015096ED91FC91C8013B
:100540001995D9CE8E7FF801828BF5CF91605296A6
:100550009C9352976A817B811D967C936E931C9726
:100560006C0D7D1D9601A601C8010E944B0DC3CEE6
:1005700091FD04C0C8010E942B16BDCE9E7FF801DC
:10058000928BB9CE29853A85232B19F40F900FBE93
:100590008FCE811109C0809148038E8380914603DC
:1005A0009091470398878F830F900FBE0E949E0CF7
:1005B0000FB6F8940F92F801858D8F3F09F4158ED0
:1005C000D8015E968C915E978F3F11F45E961C92D7
:1005D0000F900FBEBE01675F7F4FCE0106960E944F
:1005E000BC0B81111BC0C8010E94A40C882381F0A0
:1005F00069857A85C6010E94630EC8010E94AF0C0E
:100600000E94760F811102C00E94B20E81E07ECE60
:10061000C8010E94AF0C0E94760FF8CFC8010E945B
:10062000AF0C0E94760FC8010E94A40C882371F3BE
:100630003FCE8091E402811109C08091490382304C
:1006400010F00E94B20E0E94B404F3CF0FB6F894DB
:100650000F92E0912403F0912503C681D781CE014A
:1006600002960E94F10C80914503815080934503CE
:100670008091E40281508093E4020F900FBE8F8935
:10068000988D0E942B16CE010E942B16D2CF8F1769
:1006900011241FBECFEFD1E2DEBFCDBF00E00CBF03
:1006A00012E0A0E0B2E0E6EDF7E300E00BBF02C02D
:1006B00007900D92A83DB107D9F724E0A8EDB2E06C
:1006C00001C01D92A03BB207E1F713E0C8E4D3E0FC
:1006D00000E006C021970109802FFE010E94D11B76
:1006E000C734D10780E00807A9F70E9406180C94C8
:1006F000E91B0C940000E0919C04E03388F54091E4
:100700009D0428E830E0241B310947FD3395220F72
:10071000331F220F331F8217930784F040919E04EA
:1007200028E532E0241B310947FD3395220F331FA2
:10073000220F331F821793070CF49C0122503109BA
:10074000220F331F4FB7F8948E2F90E0FC01EE0F6D
:10075000FF1FE80FF91FE55FFB4F328321834FBF77
:100760000895AF92BF92CF92DF92EF92FF920F93D4
:100770001F93CF93DF936C017B018B01040F151F37
:10078000EB015E01AE18BF08C017D10759F069919F
:10079000D601ED91FC910190F081E02DC6011995F3
:1007A000892B79F7C501DF91CF911F910F91FF90B0
:1007B000EF90DF90CF90BF90AF900895FC01538DE4
:1007C000448D252F30E0842F90E0821B930B54172B
:1007D00010F0CF96089501970895FC01918D828DB8
:1007E000981761F0A28DAE0FBF2FB11D5D968C9151
:1007F000928D9F5F9F73928F90E008958FEF9FEF90
:100800000895FC01918D828D981731F0828DE80F4B
:10081000F11D858D90E008958FEF9FEF0895FC0105
:10082000918D228D892F90E0805C9F4F821B9109D2
:100830008F73992708958EE693E00E940F0421E0BC
:10084000892B09F420E0822F0895FC01A48DA80FC4
:10085000B92FB11DA35ABF4F2C91848D90E0019602
:100860008F739927848FA689B7892C93A089B18922
:100870008C91837080648C93938D848D981306C0C3
:100880000288F389E02D80818F7D80830895EF9227
:10089000FF920F931F93CF93DF93EC0181E0888F3A
:1008A0009B8D8C8D98131AC0E889F989808185FF0A
:1008B00015C09FB7F894EE89FF896083E889F989AC
:1008C00080818370806480839FBF81E090E0DF91AE
:1008D000CF911F910F91FF90EF900895F62E0B8D01
:1008E00010E00F5F1F4F0F731127E02E8C8D8E11BC
:1008F0000CC00FB607FCFACFE889F989808185FF23
:10090000F5CFCE010E942504F1CFEB8DEC0FFD2F2A
:10091000F11DE35AFF4FF0829FB7F8940B8FEA89DD
:10092000FB8980818062CFCFCF93DF93EC01888DEC
:100930008823B9F0AA89BB89E889F9898C9185FD5A
:1009400003C0808186FD0DC00FB607FCF7CF8C91E8
:1009500085FFF2CF808185FFEDCFCE010E94250477
:10096000E9CFDF91CF91089580E090E0892B29F0C5
:100970000E941B0481110E94000080E090E0892BFE
:1009800049F080E090E0892B29F00E94000081115D
:100990000E94000080E090E0892B49F080E090E028
:1009A000892B29F00E94000081110E94000080E044
:1009B00090E0892B49F080E090E0892B29F00E949B
:1009C000000081110C94000008958150823108F0DC
:1009D0005AC0E82FF0E08827EF50FB4F8F4F0C9460
:1009E000D11B11051505030509050D05430518055E
:1009F0001E05220528052C05300536053A05430558
:100A00003E0544054805809180008F7780938000E3
:100A10000895809180008F7DF9CF80918000877F3D
:100A2000F5CF84B58F7784BD089584B58F7DFBCFD6
:100A30008091B0008F778093B00008958091B000CE
:100A40008F7DF9CF809190008F77809390000895EB
:100A5000809190008F7DF9CF80919000877FF5CFB6
:100A60008091A0008F778093A00008958091A000CE
:100A70008F7DF9CF8091A000877FF5CF80912001F5
:100A80008F77809320010895809120018F7DF9CF89
:100A900080912001877FF5CFCF93DF93282F30E01F
:100AA000F901E65AFD4F8491F901EC5EFD4FD491B6
:100AB000F901E253FE4FC491CC23A1F081110E94B1
:100AC000E504EC2FF0E0EE0FFF1FEC54FE4FA59174
:100AD000B491EC91ED2381E090E009F480E0DF91A6
:100AE000CF91089580E090E0FACF1F93CF93DF93EA
:100AF000282F30E0F901E65AFD4F8491F901EC5EB0
:100B0000FD4FD491F901E253FE4FC491CC23A9F0DB
:100B1000162F81110E94E504EC2FF0E0EE0FFF1F6D
:100B2000E656FE4FA591B4918FB7F894EC91111150
:100B300008C0D095DE23DC938FBFDF91CF911F914A
:100B40000895DE2BF8CFCF93DF9390E0FC01EC5EAD
:100B5000FD4F249182539E4FFC0184918823D1F054
:100B600090E0880F991FFC01E058FE4FA591B491C9
:100B7000FC01E656FE4FC591D491623071F49FB7E7
:100B8000F8943C91822F809583238C93E8812E2BBF
:100B900028839FBFDF91CF9108958FB7F894EC9190
:100BA0002E2B2C938FBFF6CF3FB7F8948091F00295
:100BB0009091F102A091F202B091F30226B5A89BA8
:100BC00005C02F3F19F00196A11DB11D3FBFBA2FDF
:100BD000A92F982F8827BC01CD01620F711D811D9F
:100BE000911D42E0660F771F881F991F4A95D1F724
:100BF00008950C94D405AF92BF92CF92DF92EF92FA
:100C0000FF920F931F93CF93DF936B017A01EC0157
:100C1000C052DD4F28813CE0389F8001399F100D84
:100C20001124A0909B04B12C27FF1FC0FB0111824F
:100C3000108288818F5F888388819801280F311DF9
:100C400087FD3A95F6012A153B051CF488818C3006
:100C5000C4F180819181049680349C4908F473C06A
:100C6000F60180819181049670C088819801280FD7
:100C7000311D87FD3A952A153B05DCF68881A801D0
:100C8000480F511D87FD5A95FA01EE0FFF1FE40F23
:100C9000F51FE55FFB4F808186FFCBCF8881F80190
:100CA000E80FF11D87FDFA95CF01EE0FFF1FE80F4A
:100CB000F91FE55FFB4F808160E08F730E9475052F
:100CC000B8CF808191812881A801420F511D27FD55
:100CD0005A959A01FA01EE0FFF1FE20FF31FE55F2D
:100CE000FB4F21813281820F931FF7019183808313
:100CF00088819801280F311D87FD3A95F901EE0F83
:100D0000FF1FE20FF31FE55FFB4F808186FF22C0CC
:100D10008881080F111D87FD1A95F801EE0FFF1F3E
:100D2000E00FF11FE55FFB4F808161E08F73DF9182
:100D3000CF911F910F91FF90EF90DF90CF90BF90D8
:100D4000AF900C94750580E49CE9F7019183808352
:100D50008FEF8883DF91CF911F910F91FF90EF90DC
:100D6000DF90CF90BF90AF9008950895FF920F93BA
:100D70001F93CF93DF93F82E062FC7E0D0E010E04B
:100D800061E0802F0E9475058F2D0E944C050C2E6E
:100D900001C0880F0A94EAF7182B60E0802F0E94A8
:100DA0007505219768F7812FDF91CF911F910F91E2
:100DB000FF900895EF92FF920F931F93CF93DF93CD
:100DC0008091A2040E944C05892B19F00E94F9051C
:100DD000F7CFDFB7F8946091A1048091A2040E943C
:100DE000B606082F6091A1048091A2040E94B60665
:100DF000C82F6091A1048091A2040E94B606182F0A
:100E0000F12CE12C8091A3048E151F0479F070F071
:100E100061E08091A1040E94750560E08091A104C9
:100E20000E9475058FEFE81AF80AECCFDFBF6C2F30
:100E300070E090E080E0982F872F762F6627802B38
:100E4000612B000F000B10E030E020E0302F222754
:100E500011270027602B712B822B932BDF91CF91D1
:100E60001F910F91FF90EF900895FC0101900020D9
:100E7000E9F73197AF01481B590BBC018EE693E0AF
:100E80000C94B1038F929F92AF92BF92CF92DF9258
:100E9000EF92FF920F931F93CF93DF93CDB7DEB7FF
:100EA000A1970FB6F894DEBF0FBECDBF6C01990FAE
:100EB000EE08FF08F7FE47C06DE28EE693E00E9461
:100EC00047048C0122273327A9012C193D094E091B
:100ED0005F0919A2CE0181967C019AE0892E912C9E
:100EE000A12CB12CCA01B901A50194010E946D1A6F
:100EF000605DF70162937F012115310541055105C0
:100F000089F790E080E0309719F0CF010E94350713
:100F1000080F191F83E292E00E943507800F911F8E
:100F2000A1960FB6F894DEBF0FBECDBFDF91CF9173
:100F30001F910F91FF90EF90DF90CF90BF90AF90F7
:100F40009F908F900895A701960119A28E010F5DC1
:100F50001F4F8AE0C82ED12CE12CF12CCA01B90117
:100F6000A70196010E946D1A605DF80162938F01DE
:100F7000211531054105510589F7309729F0CF0139
:100F80000E9435078C01C6CF10E000E0C3CFCF939D
:100F9000DF930E943507EC0183E292E00E9435075F
:100FA0008C0F9D1FDF91CF9108958091DE0290916B
:100FB000DF028B35910524F18091DC029091DD02F6
:100FC0000E94691286E292E00E94C7078091DE02C9
:100FD0009091DF02845691099093DF028093DE02A4
:100FE0008091DC029091DD020E943E1189E492E042
:100FF0000E9435078091DE029091DF020E94420735
:1010000082E390E00E944714D0CF8091DE0290915D
:10101000DF02883E934044F582E592E00E94C707D4
:101020008091DC029091DD020E94691289E592E0D4
:101030000E94C7078091DE029091DF028A569F4F7F
:101040009093DF028093DE028091DC029091DD02BA
:101050000E943E1189E492E00E9435078091DE02F1
:101060009091DF020E9442078EE091E00E944714B7
:10107000CCCF61E089E00E9475058EE390E00E948C
:10108000471460E089E00E94750584E690E00E94C4
:101090004714EFCF61E086E10E9475058EE390E092
:1010A0000E94471460E086E10E94750582E392E0A9
:1010B0000E944714EFCF08E512E0C8E8D0E0809125
:1010C0009E049801281B310987FD3395C901880FBB
:1010D000991F880F991F0E947B0389E190E00E946D
:1010E000471480919D049E01281B310987FD33958B
:1010F000C901880F991F880F991F0E947B038CE9F3
:1011000090E00E944714DBCF0E94DA066B017C015D
:101110000E94F9058091A4049091A504A091A604D1
:10112000B091A704A7019601281B390B4A0B5B0B52
:10113000CA01B9010E94391B2091A8043091A90469
:101140004091AA045091AB040E948F1A0E94011B87
:101150006B0180910002909101028C159D0509F1AF
:101160008091DC029091DD020E946912C091DE0242
:10117000D091DF02CC0DDD1DD0920102C0920002A1
:10118000D093DF02C093DE028AE792E00E94C70795
:10119000CE010E9442078091DC029091DD020E9404
:1011A0003E118AED90E00E944714AECF0C94C51911
:1011B000CF92DF92EF92FF920F931F93CF93DF9323
:1011C000E0917E03F0917F0382E08083E0917A03D7
:1011D000F0917B031082E0917C03F0917D038FEC12
:1011E000808310928603E0918203F091830386E06E
:1011F0008083E0918003F09181038081806180830E
:10120000E0918003F0918103808188608083E09188
:101210008003F0918103808180688083E091800366
:10122000F091810380818F7D808385E38093A10489
:1012300084E38093A20461E085E30E94A30562E059
:101240008091A2040E94A30581E08093A3048CE80E
:1012500092E00E94C70780919C04803308F052C03E
:1012600061E083E30E94A30580919C04282F30E075
:10127000F901EE0FFF1FE20FF31FE55FFB4F9081B7
:10128000907C9363908310929D0410929E042CE0B6
:10129000622F0E94C51B829FB001112430E020E024
:1012A000AB01420F531FFA01EE0FFF1FE40FF51FB2
:1012B000E55FFB4F908196FD17C02F5F3F4F2C30AD
:1012C000310571F7813009F0B1C01092800082E0E1
:1012D000809381001092850010928400B19A8091D1
:1012E0006F00826080936F00E0919C048E2F90E0ED
:1012F000FC01EE0FFF1FE80FF91FE55FFB4F808138
:101300008064808361E086E10E94A30561E089E05A
:101310000E94A3058AE097EDA1EFB1E48093A804B1
:101320009093A904A093AA04B093AB04CAE0C12C83
:10133000D12C76010E94DA06C60ED71EE81EF91ED1
:101340000E94F905C150B1F7C701B6012AE030E0AB
:1013500040E050E00E944E1ACA01B9010E94391BB8
:101360000E94011B6093A4047093A5048093A604BB
:101370009093A7048FE190E00E943C16EC01009747
:1013800081F09983888381E08B8F1C8ECE010E942F
:10139000820E1D821C82198218821E82CE010E943A
:1013A0003E11D093DD02C093DC0210E000E021E0AA
:1013B00040E850E069E972E084E898E00E945A163B
:1013C00022E040E850E062EA72E08BE598E00E949B
:1013D0005A1623E044E650E068EA72E08AE498E0B6
:1013E0000E945A1624E044E650E06FEA72E089E376
:1013F00098E00E945A1624E040E850E063EB72E067
:1014000085E098E00E945A1625E040E850E06DEB38
:1014100072E085ED97E00E945A16DF91CF911F91FF
:101420000F91FF90EF90DF90CF900895823061F49C
:101430001092900080939100109295001092940069
:1014400088BB8093710050CF833069F41092A00064
:1014500082E08093A1001092A5001092A40089BBA5
:101460008093720041CF81113FCF1092200182E022
:101470008093210110922501109224018ABB809350
:10148000730032CF1F920F920FB60F9211240BB63A
:101490000F922F933F934F935F936F937F938F930D
:1014A0009F93AF93BF93EF93FF938EE693E00E94D9
:1014B0002504FF91EF91BF91AF919F918F917F9103
:1014C0006F915F914F913F912F910F900BBE0F90B5
:1014D0000FBE0F901F9018951F920F920FB60F928C
:1014E00011240BB60F922F938F939F93EF93FF933B
:1014F000E0917E03F0917F038081E0918403F0917D
:10150000850382FD1DC09081809187038F5F8F735B
:1015100020918803821741F0E0918703F0E0E259BF
:10152000FC4F958F80938703FF91EF919F918F914F
:101530002F910F900BBE0F900FBE0F901F9018951C
:101540008081F2CF1F920F920FB60F9211242F932A
:101550003F938F939F93AF93BF938091EC029091B1
:10156000ED02A091EE02B091EF023091EB0223E088
:10157000230F2D3758F50196A11DB11D2093EB02C5
:101580008093EC029093ED02A093EE02B093EF02F1
:101590008091F0029091F102A091F202B091F302D9
:1015A0000196A11DB11D8093F0029093F102A093CA
:1015B000F202B093F302BF91AF919F918F913F914F
:1015C0002F910F900FBE0F901F90189526E8230FB4
:1015D0000296A11DB11DD2CF1F920F920FB60F928E
:1015E00011240BB60F922F933F934F935F936F93FA
:1015F0007F938F939F93AF93BF93EF93FF9348E2B3
:1016000051E064E271E090E080E00E94FB05FF9110
:10161000EF91BF91AF919F918F917F916F915F916A
:101620004F913F912F910F900BBE0F900FBE0F90D7
:101630001F9018951F920F920FB60F9211240BB6A0
:101640000F922F933F934F935F936F937F938F935B
:101650009F93AF93BF93EF93FF9348EA50E064EA00
:1016600070E083E090E00E94FB05FF91EF91BF9155
:10167000AF919F918F917F916F915F914F913F912A
:101680002F910F900BBE0F900FBE0F901F901895CB
:101690001F920F920FB60F9211240BB60F922F9339
:1016A0003F934F935F936F937F938F939F93AF93EA
:1016B000BF93EF93FF9348E950E064E970E082E064
:1016C00090E00E94FB05FF91EF91BF91AF919F9138
:1016D0008F917F916F915F914F913F912F910F90DB
:1016E0000BBE0F900FBE0F901F9018951F920F9278
:1016F0000FB60F9211240BB60F922F933F934F9377
:101700005F936F937F938F939F93AF93BF93EF9369
:10171000FF9348E850E064E870E081E090E00E94C8
:10172000FB05FF91EF91BF91AF919F918F917F91B9
:101730006F915F914F913F912F910F900BBE0F9042
:101740000FBE0F901F901895E0911403F0911503B0
:101750008081811107C08FEF9FEF90930F038093DB
:101760000E030895E0911403F09115030580F681AE
:10177000E02D80819181F1CFFC01DB010FB6F8945F
:101780000F9240914603509147032D913C91119740
:101790002F3F320711F1818192816091480370815E
:1017A000761749F04817590730F01D921C9281E0D6
:1017B0000F900FBE0895481B590B42175307A8F707
:1017C000241B350B2D933C9380914803808380919B
:1017D0004603909147039283818380E0E9CFCF93C2
:1017E000DF93DC011596ED91FC910680F781E02DE9
:1017F000A489B5898685978520893189EC013D8347
:101800002C83C089D1899B838A83CF010C96119642
:101810002D913C9112972817390721F41296DC93E9
:10182000CE931197158A148A2C9121502C932091D4
:10183000E802211157C0A285B38584819581268154
:101840003781EC013D832C83C681D7819B838A83BA
:10185000CF01029611962D913C91129728173907C6
:1018600021F41296DC93CE931197138612862C9155
:1018700021502C93C68920916D032C1710F4C0932E
:101880006D0329E02C9FE0011124C75BDC4F098028
:10189000DA81C02DD583C4834C815D815783468313
:1018A000AC81BD8113969C938E9312979D838C83FC
:1018B000A689A29FD0011124A75BBC4FB387A28742
:1018C0008C918F5F8C93A091D802B091D9029689A8
:1018D00056968C91891730F581E08093E702DF916D
:1018E000CF910895A0912903B0912A03B787A687C5
:1018F00014962D913C911597318B208B1496CD9198
:10190000DC9115979B838A8315969C938E931497ED
:1019100088E293E0958B848B809128038F5F80937E
:101920002803D1CF80E0DBCF0FB6F8940F928091DF
:101930004603909147030F900FBE08958091E802EF
:101940008F5F8093E80208950FB6F8940F92FC0120
:10195000928D0F900FBE81E0911180E00895EF927B
:10196000FF920F931F93CF93DF93EC010FB6F89480
:101970000F921E8D7C0181E1E80EF11C01E0111631
:10198000D4F08FEF8E8F0F900FBE0FB6F8940F929A
:101990001D8D7E0188E0E80EF11C01E01116B4F007
:1019A0008FEF8D8F0F900FBEDF91CF911F910F9111
:1019B000FF90EF9008958989882319F3C7010E9449
:1019C000EF0B81110093E7021150D9CF888588234E
:1019D00039F3C7010E94EF0B81110093E702115008
:1019E000DDCFCF93DF93FC01A085B1858281938108
:1019F00024813581EC013D832C83C481D5819B8377
:101A00008A8311968D919C9112978E179F0721F4CE
:101A10001296DC93CE931197118610868C9181508B
:101A20008C938C91DF91CF9108950F931F93CF9357
:101A3000DF938C01FB0180819181D80113968F3F48
:101A40009807F1F4E801AF81B88512968D919C91C9
:101A5000139793838283EC01FD83EC83B583A48386
:101A60001396FC93EE93129711870087F8018081FB
:101A70008F5F8083DF91CF911F910F910895D901DE
:101A800012962D913C911397E90148815981841751
:101A90009507A8F7DACFFC0173836283918780876B
:101AA0004617570790F0421B530B848595854817BE
:101AB0005907C8F4BF016E5F7F4F8091F402909187
:101AC000F5020E94150D80E008954217530718F49F
:101AD0006217730740F4BF016E5F7F4F8091F6027B
:101AE0009091F702EECF81E00895EF92FF920F936D
:101AF0001F93CF93DF93EC018B017A016C857D8579
:101B0000600F711F9801A701CE010E944B0D81113A
:101B100007C0DF91CF911F910F91FF90EF90089533
:101B20008C859D85080F191FE889F989CE011995C3
:101B3000E5CFEF92FF920F931F93CF93DF938C012A
:101B40007B01E091F602F091F7020580F681E02D2D
:101B5000C681D781CE0102960E94F10C8A8982FF4C
:101B60000FC0A701B801CE010E94750DE889F9895F
:101B7000CE01DF91CF911F910F91FF90EF901994BB
:101B80008E7F8A8BF3CFE091F602F091F70280818D
:101B900081110DC08091F4029091F5029093F702AB
:101BA0008093F602F093F502E093F4020895058025
:101BB000F681E02D6FEF7FEF808191810E94990D7A
:101BC000E2CFFF920F931F93CF93DF93EC01F62E9A
:101BD00000914603109147038091D8029091D90259
:101BE00002960E94F10CCF3FDC07E9F5FF20D9F106
:101BF000E0911703F0911803A091D802B091D90297
:101C00001596FC93EE931497A091D802B091D90247
:101C10008481958117969C938E9316978091D80214
:101C20009091D902A481B581029613969C938E93CC
:101C300012978091D8029091D9020296958384835D
:101C4000E091D802F091D90286E193E093878287F0
:101C5000809116038F5F80931603DF91CF911F91C0
:101C60000F91FF900895C00FD11FE091D802F0911D
:101C7000D902D383C2836091D8027091D902C01770
:101C8000D10768F480911203909113036E5F7F4F28
:101C9000DF91CF911F910F91FF900C94150D8091C2
:101CA0001403909115036E5F7F4F0E94150D809174
:101CB0000E0390910F03C817D90778F6D0930F033E
:101CC000C0930E03CACFCF93DF93EB016091D8028C
:101CD0007091D902645F7F4F0E94150D61E0CE01C3
:101CE000DF91CF910C94E10DFC01039692838183E7
:101CF0002FEF3FEF348323839683858390878783F9
:101D000010820895CF93DF93EC010FB6F8940F92F1
:101D1000888199812B8D4C8DBC01249F600D711D94
:101D200011247D836C831A8E9B838A832150330B0D
:101D3000429FB001439F700D1124860F971F9F8310
:101D40008E838FEF8D8F8E8FCE0108960E94740E3A
:101D5000CE0141960E94740E0F900FBE81E0DF917C
:101D6000CF9108950F920FB6F8940F920BB60F9281
:101D70000CB60F921F9211242F923F924F925F92B6
:101D80006F927F928F929F92AF92BF92CF92DF928B
:101D9000EF92FF920F931F932F933F934F935F9375
:101DA0006F937F938F939F93AF93BF93CF93DF9363
:101DB000EF93FF93A091D802B091D9020DB60D9286
:101DC0000EB60D928091E802882321F081E0809385
:101DD000E7025DC01092E702A091D802B091D9024B
:101DE000E091D802F091D9022D913C918789908D94
:101DF00082179307A8F08091D8029091D902809120
:101E0000D8029091D902279A2F9A2FEF87EA91E66C
:101E1000215080409040E1F700C000001F9AF5CFAC
:101E200020916D0389E001C02150422F50E0849F32
:101E3000F001859FF00D1124E75BFC4F9081992301
:101E400099F3A181B28112966D917C917283618325
:101E5000289FC0011124845B9C4F6817790721F4E7
:101E6000858196819283818389E0849FF001859F9B
:101E7000F00D1124E75BFC4F0180F281E02D86819B
:101E800097819093D9028093D80220936D03A091FB
:101E9000D802B091D902CD91CDBFDD91DEBFFF91C7
:101EA000EF91DF91CF91BF91AF919F918F917F91F2
:101EB0006F915F914F913F912F911F910F91FF90E3
:101EC000EF90DF90CF90BF90AF909F908F907F90DA
:101ED0006F905F904F903F902F901F900F900CBE8F
:101EE0000F900BBE0F900FBE0F9008958F929F9290
:101EF000BF92CF92DF92EF92FF920F931F93CF93F7
:101F0000DF930FB6F8940F928091E802815080938E
:101F1000E8028091E802882379F080E00F900FBEFC
:101F2000DF91CF911F910F91FF90EF90DF90CF90B5
:101F3000BF909F908F90089580914503882369F307
:101F4000E0902D03F0902E03F0E0E0E039E041E076
:101F50008091280381115EC0EF2B11F00E94A40B29
:101F6000E090E502F090E602E114F10409F47DC18D
:101F700089E0D82ECC24C3940FEF1FEF8091E802A4
:101F8000811161C1C0914603D09147034E018FEF8B
:101F9000881A980A9092470380924603811491040C
:101FA000B9F480911403909115032091120330919C
:101FB000130330931503209314039093130380931A
:101FC0001203809148038F5F809348030E94A40B03
:101FD00080910E0390910F03B12C8816990608F09A
:101FE00026C1E091D802F091D902E689DE9EF00187
:101FF0001124E75BFC4F8081823010F0BB24B39446
:102000008091E702811103C0BB2009F425C1C09271
:10201000E70222C1D7011696ED91FC91A489B589FA
:102020006685778580899189EB019D838C83808982
:102030009189EC017B836A83BF01645F7F4F1196B6
:102040000D911C9112970617170721F412969C9375
:102050008E931197158A148A8C9181508C93A28546
:10206000B3858481958166817781EC017D836C8362
:1020700066817781EB019B838A83CF01029611965B
:102080000D911C9112970817190721F412967C9351
:102090006E931197138612862C9121502C93A6894A
:1020A00020916D032A1710F4A0936D033A9FD0017D
:1020B0001124A75BBC4F11960D90BC91A02DB58348
:1020C000A48314966D917C911597778366831496FB
:1020D0006D917C911597EB019B838A8315969C9358
:1020E0008E9314979689939FD0011124A75BBC4FC0
:1020F000B387A2878C918F5F8C93A091D802B09107
:10210000D90256968C91891708F022CF4093E702A6
:102110001FCFE0911403F09115030580F681E02DA7
:102120000680F781E02D828193818816990628F434
:1021300090930F0380930E0354CFC285D38584817F
:10214000958126813781DC0115963C932E93149757
:1021500026813781D90113969C938E931297CF01D4
:10216000029649815A814817590711F43A83298305
:1021700013861286288121502883A489B589109757
:10218000F9F02685378540895189E9015D834C83C3
:1021900040895189EA013B832A8311966D917C9194
:1021A00012979F01245F3F4F6217730721F4129625
:1021B0005C934E931197158A148A2C9121502C937D
:1021C000A68920916D032A1710F4A0936D03DA9E5F
:1021D000D0011124A75BBC4F11960D90BC91A02D8E
:1021E000B583A48314962D913C911597378326834C
:1021F00014962D913C911597E9019B838A8315963E
:102200009C938E93149796899D9DD0011124A75B72
:10221000BC4FB387A2878C918F5F8C93E091D802DB
:10222000F091D9028689891710F4BB24B394E09108
:102230001403F0911503808181116BCF10930F036C
:1022400000930E03CECE8091E5029091E6020196B6
:102250009093E6028093E502D1E0ED1AF10809F0CF
:102260008DCE1092E6021092E5028091E70288235B
:1022700009F453CE0E94B20E81E050CEAF92BF92CD
:10228000DF92EF92FF920F931F93CF93DF9300D0D3
:102290001F921F92CDB7DEB78C011D821C8280E099
:1022A000780198E0E90EF11C0FB6F8940F92D8016E
:1022B0005A962C915A975B969C915B97291708F038
:1022C000B0C05A96DC905A975C964C915C9741113D
:1022D0008CC08D919C91892B11F080E00AC0F8018F
:1022E000E480F580E114F10431F580E0F801158215
:1022F0001482D394D8015A96DC925A9751969C91A5
:10230000992321F0C80141960E94EF0B81110E9490
:10231000B20E0F900FBE81E00F900F900F900F90B4
:102320000F90DF91CF911F910F91FF90EF90DF9071
:10233000BF90AF900895D70192968C91929781505B
:1023400092968C93929756962C91569791969C9133
:10235000291759F28111C9CF5701B2E0AB0EB11C58
:10236000C5010E94F10CF70181A1868B482F50E036
:1023700024E030E0241B350B3587248790916D03D2
:10238000981710F480936D0389E0849FD001859F96
:10239000B00D1124A75BBC4F11960D90BC91A02DE0
:1023A000F701B583A48314962D913C91159737833B
:1023B00026831496ED91FC911597B382A28215960F
:1023C000BC92AE921497D7015696EC915697E89F1F
:1023D000F0011124E75BFC4F1B96FC93EE931A97D8
:1023E00080818F5F808381E081CF50E070E060E08A
:1023F00012968D919C910E94D91BF801848D2281A7
:102400003381820F932F911D9383828324813581A1
:102410008217930708F461CF80819181938382832F
:102420005CCF2C813D81232B21F40F900FBE80E0E7
:1024300073CF811109C0809148038983809146033D
:10244000909147039B838A830F900FBE0E949E0C3E
:102450000FB6F8940F92F801858D8F3F09F4158E11
:10246000D8015E968C915E978F3F11F45E961C9218
:102470000F900FBEBE016C5F7F4FCE0101960E9490
:10248000BC0B811120C00FB6F8940F92F801928D09
:10249000838D0F900FBE981310C06C817D81C70192
:1024A0000E94630EC8010E94AF0C0E94760F81113A
:1024B00002C00E94B20E81E0F7CEC8010E94AF0CAC
:1024C0000E94760FF8CFC8010E94AF0C0E94760FD1
:1024D000AECF7F928F929F92AF92BF92CF92DF92B8
:1024E000EF92FF920F931F93CF93DF9300D01F9231
:1024F0001F92CDB7DEB78C018FEF9FEF9D838C834A
:10250000D12C90E0580121E1A20EB11C89E0782E77
:1025100024E0822E912C0FB6F8940F92D8015A968F
:102520008C915A97882309F440C081505A968C9315
:102530005A978D919C91892BA1F48091D80290910A
:10254000D902892B39F0E091D802F091D90282A109
:102550008F5F82A38091D8029091D902F801958370
:102560008483D80118968C91882339F0C801089685
:102570000E94EF0B81110E94B20E0F900FBEDD245E
:10258000D3948D2D0F900F900F900F900F90DF919F
:10259000CF911F910F91FF90EF90DF90CF90BF9060
:1025A000AF909F908F907F9008952C813D81232B39
:1025B00021F40F900FBED12CE4CF911109C080916E
:1025C0004803898380914603909147039B838A83C4
:1025D0000F900FBE0E949E0C0FB6F8940F92F80158
:1025E000858D8F3F09F4158ED8015E968C915E978C
:1025F0008F3F11F45E961C920F900FBEBE016C5F70
:102600007F4FCE0101960E94BC0B8111AEC0C80164
:102610000E94A40C882309F4A2C0F8018081918152
:10262000892B09F076C00FB6F8940F92E480F580FC
:10263000E114F10409F491C0F7018689E091D80210
:10264000F091D9029689891708F07BC0D7011C96B2
:102650002D913C911D9737FD0CC0E091D802F0916F
:10266000D90296899401291B31091D963C932E931A
:102670001C97879DC0011124875B9C4FF701228521
:1026800033852817390709F054C06701F2E0CF0EEF
:10269000D11CC6010E94F10CE091D802F091D90240
:1026A000E689D7015696EC9380916D038E1710F44E
:1026B000E0936D037E9EF0011124E75BFC4F0180E7
:1026C000F281E02DD7011596FC93EE931497848147
:1026D000958117969C938E931697A481B581139636
:1026E000DC92CE921297D582C482D7015696EC9195
:1026F0005697E79DF0011124E75BFC4F1B96FC9376
:10270000EE931A9780818F5F8083DD24D3940F909E
:102710000FBE6C817D81C5010E94630EC8010E94BD
:10272000AF0C0E94760F811102C00E94B20E91E0A0
:10273000F2CEE091D802F091D9028689F701868B1A
:10274000E4CFE091D802F091D902DD24D394D701EF
:1027500091969C9186899817D0F2D12CD8CFC80138
:102760000E94AF0C0E94760FE2CFC8010E94AF0C0E
:102770000E94760FC8010E94A40C8823C1F2DD20BC
:1027800009F4FFCE0FB6F8940F92F80181898823DF
:1027900009F47BC00688F789E02D908184E0891BCD
:1027A000D80114960D911C910115110509F401CF62
:1027B000F80191A1981708F4982FD80156968C919A
:1027C0005697981709F4F5CE92962C91929721304E
:1027D00009F0EFCE56969C9356971C962D913C91FE
:1027E0001D9737FD08C024E030E0291B31091D96F4
:1027F0003C932E931C97B9E08B9FC0011124875BFB
:102800009C4FF801228533852817390709F0D1CE6E
:102810007801F2E0EF0EF11CC7010E94F10CF80103
:10282000A68980916D038A1710F4A0936D0389E047
:102830008A9FD0011124A75BBC4F11960D90BC91CB
:10284000A02DF801B583A48314962D913C91159782
:10285000378326831496ED91FC911597F382E282DB
:102860001596FC92EE921497D8015696EC915697D5
:10287000E89FF0011124E75BFC4F1B96FC93EE935D
:102880001A9780818F5F808394CE80E089CFCF9329
:10289000DF93EC01892B29F40E94B20EDF91CF91D6
:1028A00008950E949E0C60E0CE010E94E10D0E94FE
:1028B000760F882389F3F2CF0F920FB6F8940F9218
:1028C0000BB60F920CB60F921F9211242F923F92CB
:1028D0004F925F926F927F928F929F92AF92BF9230
:1028E000CF92DF92EF92FF920F931F932F933F931C
:1028F0004F935F936F937F938F939F93AF93BF9308
:10290000CF93DF93EF93FF93A091D802B091D902B8
:102910000DB60D920EB60D9213BE8091E802811194
:10292000F9C0809146039091470301969093470325
:1029300080934603009781F520911403309115038D
:1029400040911203509113035093150340931403C5
:102950003093130320931203209148032F5F209399
:102960004803E0911403F09115032081211107C061
:102970002FEF3FEF30930F0320930E030DC0E09134
:102980001403F09115030580F681E02D208131813B
:1029900030930F0320930E0320910E0330910F0309
:1029A0008217930710F420E0A1C020E039E0D32E75
:1029B000E0911403F09115033081311107C08FEFBE
:1029C0009FEF90930F0380930E0390C0E091140348
:1029D000F09115030580F681E02D0680F781E02D4A
:1029E000428153818417950728F450930F03409335
:1029F0000E037CC0A285B3854481558166817781B1
:102A0000EA017D836C8366817781EB015B834A8376
:102A1000AF014E5F5F4F11960D911C9112970417F5
:102A2000150721F412967C936E93119713861286E4
:102A30003C9131503C93A489B5891097F9F0668593
:102A4000778500891189EB011D830C830089118929
:102A5000E8017B836A831196ED90FC901297BF0189
:102A6000645F7F4FE616F70621F412961C930E93CF
:102A70001197158A148A3C9131503C93A689309164
:102A80006D033A1710F4A0936D03DA9ED001112460
:102A9000A75BBC4F11960D90BC91A02DB583A4836C
:102AA00014966D917C9115977783668314966D913A
:102AB0007C911597EB015B834A8315965C934E934B
:102AC000149746894D9DD0011124A75BBC4FB38755
:102AD000A2873C913F5F3C93E091D802F091D902EC
:102AE0003689341708F064CF21E062CFE091D80234
:102AF000F091D902E689D9E0ED9FF0011124E75B5E
:102B0000FC4F8081823008F021E08091E702811142
:102B10000EC00AC08091E5029091E6020196909362
:102B2000E6028093E50268C0222309F465C0809123
:102B3000E802882321F081E08093E7025DC01092D3
:102B4000E702A091D802B091D902E091D802F091A9
:102B5000D9022D913C918789908D82179307A8F017
:102B60008091D8029091D9028091D8029091D90297
:102B7000279A2F9A2FEF87EA91E6215080409040C4
:102B8000E1F700C000001F9AF5CF20916D0389E0A6
:102B900001C02150422F50E0849FF001859FF00D2D
:102BA0001124E75BFC4F9081992399F3A181B281B5
:102BB00012966D917C9172836183289FC0011124CC
:102BC000845B9C4F6817790721F4858196819283F5
:102BD000818389E0849FF001859FF00D1124E75BDC
:102BE000FC4F0180F281E02D868197819093D9027C
:102BF0008093D80220936D03A091D802B091D9029E
:102C0000CD91CDBFDD91DEBFFF91EF91DF91CF91EF
:102C1000BF91AF919F918F917F916F915F914F91F4
:102C20003F912F911F910F91FF90EF90DF90CF90E8
:102C3000BF90AF909F908F907F906F905F904F90DC
:102C40003F902F901F900F900CBE0F900BBE0F90D7
:102C50000FBE0F900895CF93DF93009751F0EC01D2
:102C60000E949E0CCE010E94C519DF91CF910C9459
:102C7000760FDF91CF910895CF93DF93EC010E94FF
:102C80009E0CCE010E942919EC010E94760F20971C
:102C900069F4279A2F9A2FEF80E792E02150804025
:102CA0009040E1F700C000001F9AF5CFCE01DF9100
:102CB000CF9108957F928F929F92AF92BF92CF92C1
:102CC000DF92EF92FF920F931F93CF93DF93982E93
:102CD000E92E762E872E6A01F22ECA010E943C163A
:102CE0005C01892B09F4F7C088E290E00E943C1651
:102CF000EC01892B09F4ECC088E2DE011D928A9573
:102D0000E9F7B88EAF8AA60165EA70E0C5010E94B6
:102D1000E21BB1E0CB1AD108EF89F88DEC0DFD1D57
:102D2000672D782DCE0149969B01285F3F4FDB012F
:102D30004D91BD01DC014D93CD01AB0141505109D5
:102D4000DA014C91442319F06217730781F718A236
:102D50002F2D243008F023E02E8B29A31B861A8602
:102D60001D8A1C8AD987C88784E090E0821B91095C
:102D70009D878C87DB8BCA8B9082DF011197EC9249
:102D800011971C9211971C92119780E88C931197C0
:102D90001C9211971C9211971C9257971C92119795
:102DA0001C92B697F983E8830115110519F0F80113
:102DB000D183C0830FB6F8940F92809145038F5F43
:102DC000809345038091D8029091D902892B09F014
:102DD00091C0D093D902C093D8028091450381302D
:102DE00081F589E493E00E94740E82E593E00E94ED
:102DF000740E8BE593E00E94740E84E693E00E94CB
:102E0000740E8AE393E00E94740E81E393E00E94C3
:102E1000740E88E293E00E94740E8FE193E00E94AA
:102E2000740E86E193E00E94740E8AE393E090931F
:102E300015038093140381E393E09093130380932D
:102E40001203809143038F5F80934303AE89809187
:102E50006D038A1710F4A0936D0329E02A9FD00117
:102E60001124A75BBC4F11960D90BC91A02DBD8382
:102E7000AC8314968D919C9115979F838E831496A5
:102E8000ED91FC911597CE0102969383828315965E
:102E90009C938E931497EE89E29FF0011124E75BD7
:102EA000FC4FFB87EA8780818F5F80830F900FBE86
:102EB00080914403882351F0E091D802F091D90227
:102EC00096898E89981710F40E94B20E81E004C092
:102ED000C5010E942B168FEFDF91CF911F910F91AB
:102EE000FF90EF90DF90CF90BF90AF909F908F902A
:102EF0007F900895809144038111A3CFE091D8027F
:102F0000F091D90296898E89891708F49ACFD093C7
:102F1000D902C093D80295CF0E945C1418951092E4
:102F200071031092700388EE93E0A0E0B0E080930C
:102F3000720390937303A0937403B09375038DE0B1
:102F400092E090936F0380936E0385EC90E09093F2
:102F50007B0380937A0384EC90E090937D038093CD
:102F60007C0380EC90E090937F0380937E0381EC60
:102F700090E0909381038093800382EC90E09093A3
:102F800083038093820386EC90E090938503809383
:102F90008403109287031092880310928903109281
:102FA0008A038FE192E09093A00480939F04109293
:102FB000A4041092A5041092A6041092A70480E025
:102FC00090E0A0E8BFE38093A8049093A904A093A5
:102FD000AA04B093AB0480919B04803398F491E0F1
:102FE000980F90939B0480939C0490E0FC01EE0F5B
:102FF000FF1FE80FF91FE55FFB4F88EB9BE0928313
:10300000818308958FEF80939C040895789484B50C
:10301000826084BD84B5816084BD85B5826085BDD4
:1030200085B5816085BD80916E00816080936E0062
:103030001092810080918100826080938100809154
:103040008100816080938100809180008160809305
:1030500080008091B10084608093B1008091B000C5
:1030600081608093B0008091910082608093910094
:1030700080919100816080939100809190008160A7
:10308000809390008091A10082608093A100809144
:10309000A10081608093A1008091A0008160809355
:1030A000A000809121018260809321018091210103
:1030B00081608093210180912001816080932001B3
:1030C00080917A00846080937A0080917A00826097
:1030D00080937A0080917A00816080937A00809159
:1030E0007A00806880937A001092C10020910702D4
:1030F000309108028FEF91E2821B930B90930402B0
:10310000809303020E94D80800E113E020E040EC25
:1031100050E06AEC72E089E193E00E945A16813037
:1031200009F090C00FB6F8940F9280910C03909123
:103130000D03892B49F581E093E00E94740E88EF1E
:1031400092E00E94740E81E093E09093F7028093E6
:10315000F60288EF92E09093F5028093F40281E505
:1031600090E00E943C16EC01009751F04F96998335
:1031700088838AE08B8F85E08C8FCE010E94820E3F
:10318000D0930D03C0930C030F900FBE80910C03DE
:1031900090910D03892B09F455C00AE013E023E058
:1031A00045E550E06FEC72E080E591E00E945A1630
:1031B000813009F047C0F8942FEF3FEF30930F03B1
:1031C00020930E038093440310924703109246030A
:1031D000A89588E190EC0FB6F894A89580936000CC
:1031E0000FBE90936000A091D802B091D902CD910A
:1031F000CDBFDD91DEBFFF91EF91DF91CF91BF9108
:10320000AF919F918F917F916F915F914F913F917E
:103210002F911F910F91FF90EF90DF90CF90BF9073
:10322000AF909F908F907F906F905F904F903F9066
:103230002F901F900F900CBE0F900BBE0F900FBEE3
:103240000F900895809102020E94D8080E94B40451
:10325000FDCF0F931F93CF93DF938230910510F42E
:1032600082E090E0E091AE04F091AF0430E020E025
:10327000B0E0A0E0309799F42115310509F44AC077
:10328000281B390B24303105D8F58A819B816115C3
:10329000710589F1FB0193838283FE0111C0408196
:1032A00051810281138148175907E0F048175907E7
:1032B00099F4109761F012960C93129713961C9341
:1032C0003296CF01DF91CF911F910F910895009316
:1032D000AE041093AF04F4CF2115310551F042171D
:1032E000530738F0A901DB019A01BD01DF01F801A4
:1032F000C1CFEF01F9CF9093AF048093AE04CDCF4F
:10330000FE01E20FF31F819391932250310939831B
:103310002883D7CF2091AC043091AD04232B41F406
:1033200020910502309106023093AD042093AC0445
:1033300020910302309104022115310541F42DB78B
:103340003EB74091070250910802241B350BE091D3
:10335000AC04F091AD04E217F307A0F42E1B3F0B71
:103360002817390778F0AC014E5F5F4F24173507F7
:1033700048F04E0F5F1F5093AD044093AC0481930F
:1033800091939FCFF0E0E0E09CCFCF93DF93009745
:10339000E9F0FC01329713821282A091AE04B09141
:1033A000AF04ED0130E020E01097A1F420813181DD
:1033B000820F931F2091AC043091AD042817390778
:1033C00009F061C0F093AD04E093AC04DF91CF91BC
:1033D0000895EA01CE17DF07E8F54A815B819E0177
:1033E00041155105B1F7E901FB83EA8349915991F0
:1033F000C40FD51FEC17FD0761F4808191810296FF
:10340000840F951FE90199838883828193819B832F
:103410008A83F0E0E0E012968D919C9113970097DB
:10342000B9F52D913C911197CD010296820F931F12
:103430002091AC043091AD042817390739F6309744
:1034400051F51092AF041092AE04B093AD04A09366
:10345000AC04BCCFD383C28340815181840F951FBC
:10346000C817D90761F44E5F5F4F88819981480F73
:10347000591F518340838A819B81938382832115C5
:10348000310509F0B0CFF093AF04E093AE049ECFC6
:10349000FD01DC01C0CF13821282D7CF052E97FB2E
:1034A0001EF400940E94651A57FD07D00E946D1A01
:1034B00007FC03D04EF40C94651A50954095309556
:1034C00021953F4F4F4F5F4F089590958095709590
:1034D00061957F4F8F4F9F4F0895A1E21A2EAA1B2F
:1034E000BB1BFD010DC0AA1FBB1FEE1FFF1FA217B4
:1034F000B307E407F50720F0A21BB30BE40BF50BB1
:10350000661F771F881F991F1A9469F76095709539
:10351000809590959B01AC01BD01CF0108950E945B
:10352000A31A0C948B1B0E94841B58F00E947D1BD5
:1035300040F029F45F3F29F00C94741B51110C9456
:10354000BF1B0C947A1B0E949C1B68F39923B1F358
:10355000552391F3951B550BBB27AA2762177307B9
:10356000840738F09F5F5F4F220F331F441FAA1F4D
:10357000A9F335D00E2E3AF0E0E832D09150504009
:10358000E695001CCAF72BD0FE2F29D0660F771FB7
:10359000881FBB1F261737074807AB07B0E809F09D
:1035A000BB0B802DBF01FF2793585F4F3AF09E3F22
:1035B000510578F00C94741B0C94BF1B5F3FE4F32F
:1035C000983ED4F3869577956795B795F7959F5F65
:1035D000C9F7880F911D9695879597F90895E1E0B1
:1035E000660F771F881FBB1F621773078407BA0710
:1035F00020F0621B730B840BBA0BEE1F88F7E0956B
:1036000008950E94081B6894B1110C94BF1B089583
:103610000E94A41B88F09F5798F0B92F9927B751A3
:10362000B0F0E1F0660F771F881F991F1AF0BA9566
:10363000C9F714C0B13091F00E94BE1BB1E00895EB
:103640000C94BE1B672F782F8827B85F39F0B93FDD
:10365000CCF3869577956795B395D9F73EF4909519
:103660008095709561957F4F8F4F9F4F0895E89497
:1036700009C097FB3EF490958095709561957F4FBA
:103680008F4F9F4F9923A9F0F92F96E9BB27939568
:10369000F695879577956795B795F111F8CFFAF478
:1036A000BB0F11F460FF1BC06F5F7F4F8F4F9F4FA9
:1036B00016C0882311F096E911C0772321F09EE807
:1036C000872F762F05C0662371F096E8862F70E06D
:1036D00060E02AF09A95660F771F881FDAF7880F47
:1036E0009695879597F9089597F99F6780E870E018
:1036F00060E008959FEF80EC089500240A94161668
:10370000170618060906089500240A9412161306CF
:10371000140605060895092E0394000C11F488235D
:1037200052F0BB0F40F4BF2B11F460FF04C06F5F79
:103730007F4F8F4F9F4F089557FD9058440F551F4F
:1037400059F05F3F71F04795880F97FB991F61F023
:103750009F3F79F087950895121613061406551F9A
:10376000F2CF4695F1DF08C0161617061806991F06
:10377000F1CF86957105610508940895E894BB27FB
:1037800066277727CB0197F90895991B79E004C044
:10379000991F961708F0961B881F7A95C9F7809590
:1037A0000895EE0FFF1F881F8BBF0790F691E02D45
:1037B0001994FB01DC0102C001900D924150504070
:1037C000D8F70895DC0101C06D9341505040E0F7F7
:0637D0000895F894FFCFFC
:1037D600FFFF030000B0048000000000004704B1B2
:1037E60003DE0394040F04ED03010400000000B59A
:1037F60006D6080D0A006175746F6D6174696320E1
:1038060077656967687420686173206265656E20F4
:10381600726564756365642E005765696768743AF6
:10382600200073696D706C65006175746F6D6174ED
:1038360069632077656967687420686173206265CB
:10384600656E2061646465642E004E6577206D6147
:103856006E75616C20776569676874005374617270
:1038660074696E67202E2E2E004C6F616463656C42
:103876006C00536572766F0042757A7A6572004CF9
:103886004544004164645765696768740052656D14
:103896006F76655765696768740049444C450054FE
:0838A6006D72205376630000EF
:00000001FF
